{
  "_format": "hh-sol-artifact-1",
  "contractName": "VotingSystem",
  "sourceName": "contracts/VotingSystem.sol",
  "abi": [
    {
      "inputs": [],
      "stateMutability": "nonpayable",
      "type": "constructor"
    },
    {
      "inputs": [
        {
          "internalType": "address",
          "name": "owner",
          "type": "address"
        }
      ],
      "name": "OwnableInvalidOwner",
      "type": "error"
    },
    {
      "inputs": [
        {
          "internalType": "address",
          "name": "account",
          "type": "address"
        }
      ],
      "name": "OwnableUnauthorizedAccount",
      "type": "error"
    },
    {
      "anonymous": false,
      "inputs": [
        {
          "indexed": true,
          "internalType": "uint256",
          "name": "electionId",
          "type": "uint256"
        },
        {
          "indexed": false,
          "internalType": "string",
          "name": "name",
          "type": "string"
        },
        {
          "indexed": false,
          "internalType": "uint256",
          "name": "startTime",
          "type": "uint256"
        },
        {
          "indexed": false,
          "internalType": "uint256",
          "name": "endTime",
          "type": "uint256"
        }
      ],
      "name": "ElectionCreated",
      "type": "event"
    },
    {
      "anonymous": false,
      "inputs": [
        {
          "indexed": true,
          "internalType": "address",
          "name": "previousOwner",
          "type": "address"
        },
        {
          "indexed": true,
          "internalType": "address",
          "name": "newOwner",
          "type": "address"
        }
      ],
      "name": "OwnershipTransferred",
      "type": "event"
    },
    {
      "anonymous": false,
      "inputs": [
        {
          "indexed": true,
          "internalType": "uint256",
          "name": "electionId",
          "type": "uint256"
        },
        {
          "indexed": true,
          "internalType": "uint256",
          "name": "partyId",
          "type": "uint256"
        },
        {
          "indexed": false,
          "internalType": "string",
          "name": "name",
          "type": "string"
        },
        {
          "indexed": false,
          "internalType": "string",
          "name": "description",
          "type": "string"
        }
      ],
      "name": "PartyAdded",
      "type": "event"
    },
    {
      "anonymous": false,
      "inputs": [
        {
          "indexed": true,
          "internalType": "uint256",
          "name": "electionId",
          "type": "uint256"
        },
        {
          "indexed": true,
          "internalType": "uint256",
          "name": "partyId",
          "type": "uint256"
        },
        {
          "indexed": true,
          "internalType": "address",
          "name": "voter",
          "type": "address"
        }
      ],
      "name": "Voted",
      "type": "event"
    },
    {
      "inputs": [
        {
          "internalType": "uint256",
          "name": "electionId",
          "type": "uint256"
        },
        {
          "internalType": "string",
          "name": "_partyName",
          "type": "string"
        },
        {
          "internalType": "string",
          "name": "_description",
          "type": "string"
        }
      ],
      "name": "addParty",
      "outputs": [],
      "stateMutability": "nonpayable",
      "type": "function"
    },
    {
      "inputs": [
        {
          "internalType": "string",
          "name": "_name",
          "type": "string"
        },
        {
          "internalType": "uint256",
          "name": "_startTime",
          "type": "uint256"
        },
        {
          "internalType": "uint256",
          "name": "_endTime",
          "type": "uint256"
        }
      ],
      "name": "createElection",
      "outputs": [],
      "stateMutability": "nonpayable",
      "type": "function"
    },
    {
      "inputs": [],
      "name": "electionCount",
      "outputs": [
        {
          "internalType": "uint256",
          "name": "",
          "type": "uint256"
        }
      ],
      "stateMutability": "view",
      "type": "function"
    },
    {
      "inputs": [],
      "name": "getAllOngoingElections",
      "outputs": [
        {
          "components": [
            {
              "internalType": "uint256",
              "name": "id",
              "type": "uint256"
            },
            {
              "internalType": "string",
              "name": "name",
              "type": "string"
            },
            {
              "internalType": "uint256",
              "name": "startTime",
              "type": "uint256"
            },
            {
              "internalType": "uint256",
              "name": "endTime",
              "type": "uint256"
            },
            {
              "internalType": "uint256",
              "name": "partyCount",
              "type": "uint256"
            }
          ],
          "internalType": "struct VotingSystem.SimpleElectionDetails[]",
          "name": "",
          "type": "tuple[]"
        }
      ],
      "stateMutability": "view",
      "type": "function"
    },
    {
      "inputs": [],
      "name": "getClosedElection",
      "outputs": [
        {
          "components": [
            {
              "internalType": "uint256",
              "name": "id",
              "type": "uint256"
            },
            {
              "internalType": "string",
              "name": "name",
              "type": "string"
            },
            {
              "internalType": "uint256",
              "name": "startTime",
              "type": "uint256"
            },
            {
              "internalType": "uint256",
              "name": "endTime",
              "type": "uint256"
            },
            {
              "internalType": "uint256",
              "name": "partyCount",
              "type": "uint256"
            }
          ],
          "internalType": "struct VotingSystem.SimpleElectionDetails[]",
          "name": "",
          "type": "tuple[]"
        }
      ],
      "stateMutability": "view",
      "type": "function"
    },
    {
      "inputs": [
        {
          "internalType": "uint256",
          "name": "electionId",
          "type": "uint256"
        }
      ],
      "name": "getElectionDetails",
      "outputs": [
        {
          "internalType": "uint256",
          "name": "id",
          "type": "uint256"
        },
        {
          "internalType": "string",
          "name": "name",
          "type": "string"
        },
        {
          "internalType": "uint256",
          "name": "startTime",
          "type": "uint256"
        },
        {
          "internalType": "uint256",
          "name": "endTime",
          "type": "uint256"
        },
        {
          "components": [
            {
              "internalType": "uint256",
              "name": "id",
              "type": "uint256"
            },
            {
              "internalType": "string",
              "name": "name",
              "type": "string"
            },
            {
              "internalType": "uint256",
              "name": "voteCount",
              "type": "uint256"
            },
            {
              "internalType": "string",
              "name": "description",
              "type": "string"
            }
          ],
          "internalType": "struct VotingSystem.Party[]",
          "name": "parties",
          "type": "tuple[]"
        }
      ],
      "stateMutability": "view",
      "type": "function"
    },
    {
      "inputs": [
        {
          "internalType": "uint256",
          "name": "electionId",
          "type": "uint256"
        }
      ],
      "name": "getElectionParties",
      "outputs": [
        {
          "components": [
            {
              "internalType": "uint256",
              "name": "id",
              "type": "uint256"
            },
            {
              "internalType": "string",
              "name": "name",
              "type": "string"
            },
            {
              "internalType": "uint256",
              "name": "voteCount",
              "type": "uint256"
            },
            {
              "internalType": "string",
              "name": "description",
              "type": "string"
            }
          ],
          "internalType": "struct VotingSystem.Party[]",
          "name": "",
          "type": "tuple[]"
        }
      ],
      "stateMutability": "view",
      "type": "function"
    },
    {
      "inputs": [
        {
          "internalType": "uint256",
          "name": "electionId",
          "type": "uint256"
        }
      ],
      "name": "getResults",
      "outputs": [
        {
          "components": [
            {
              "internalType": "uint256",
              "name": "id",
              "type": "uint256"
            },
            {
              "internalType": "string",
              "name": "name",
              "type": "string"
            },
            {
              "internalType": "uint256",
              "name": "voteCount",
              "type": "uint256"
            },
            {
              "internalType": "string",
              "name": "description",
              "type": "string"
            }
          ],
          "internalType": "struct VotingSystem.Party[]",
          "name": "",
          "type": "tuple[]"
        }
      ],
      "stateMutability": "view",
      "type": "function"
    },
    {
      "inputs": [],
      "name": "owner",
      "outputs": [
        {
          "internalType": "address",
          "name": "",
          "type": "address"
        }
      ],
      "stateMutability": "view",
      "type": "function"
    },
    {
      "inputs": [],
      "name": "renounceOwnership",
      "outputs": [],
      "stateMutability": "nonpayable",
      "type": "function"
    },
    {
      "inputs": [
        {
          "internalType": "address",
          "name": "newOwner",
          "type": "address"
        }
      ],
      "name": "transferOwnership",
      "outputs": [],
      "stateMutability": "nonpayable",
      "type": "function"
    },
    {
      "inputs": [
        {
          "internalType": "uint256",
          "name": "electionId",
          "type": "uint256"
        },
        {
          "internalType": "uint256",
          "name": "partyId",
          "type": "uint256"
        }
      ],
      "name": "vote",
      "outputs": [],
      "stateMutability": "nonpayable",
      "type": "function"
    }
  ],
  "bytecode": "0x60806040523480156200001157600080fd5b5033600073ffffffffffffffffffffffffffffffffffffffff168173ffffffffffffffffffffffffffffffffffffffff1603620000885760006040517f1e4fbdf70000000000000000000000000000000000000000000000000000000081526004016200007f9190620001a9565b60405180910390fd5b6200009981620000a060201b60201c565b50620001c6565b60008060009054906101000a900473ffffffffffffffffffffffffffffffffffffffff169050816000806101000a81548173ffffffffffffffffffffffffffffffffffffffff021916908373ffffffffffffffffffffffffffffffffffffffff1602179055508173ffffffffffffffffffffffffffffffffffffffff168173ffffffffffffffffffffffffffffffffffffffff167f8be0079c531659141344cd1fd0a4f28419497f9722a3daafe3b4186f6b6457e060405160405180910390a35050565b600073ffffffffffffffffffffffffffffffffffffffff82169050919050565b6000620001918262000164565b9050919050565b620001a38162000184565b82525050565b6000602082019050620001c0600083018462000198565b92915050565b6122ab80620001d66000396000f3fe608060405234801561001057600080fd5b50600436106100b45760003560e01c8063b384abef11610071578063b384abef14610169578063d13d3ce214610185578063f030d89a146101b5578063f2fde38b146101d3578063f49a7a17146101ef578063f60499241461020b576100b4565b80631867cdad146100b95780634d08644c146100d5578063715018a6146100f357806381a60c0d146100fd5780638da5cb5b1461012d578063997d28301461014b575b600080fd5b6100d360048036038101906100ce9190611519565b61023f565b005b6100dd610390565b6040516100ea919061176a565b60405180910390f35b6100fb6105d9565b005b6101176004803603810190610112919061178c565b6105ed565b60405161012491906118e5565b60405180910390f35b6101356107e6565b6040516101429190611948565b60405180910390f35b61015361080f565b6040516101609190611972565b60405180910390f35b610183600480360381019061017e919061198d565b610815565b005b61019f600480360381019061019a919061178c565b610a7b565b6040516101ac91906118e5565b60405180910390f35b6101bd610c28565b6040516101ca919061176a565b60405180910390f35b6101ed60048036038101906101e891906119f9565b610e2b565b005b61020960048036038101906102049190611a26565b610eb1565b005b6102256004803603810190610220919061178c565b610f9f565b604051610236959493929190611adf565b60405180910390f35b610247611207565b6000600160008581526020019081526020016000209050806002015442106102a4576040517f08c379a000000000000000000000000000000000000000000000000000000000815260040161029b90611bb2565b60405180910390fd5b806004016040518060800160405280600184600401805490506102c79190611c01565b8152602001858152602001600081526020018481525090806001815401808255809150506001900390600052602060002090600402016000909190919091506000820151816000015560208201518160010190816103259190611e41565b506040820151816002015560608201518160030190816103459190611e41565b5050508060040180549050847fcae1857fb978eeb01d5b4733660d52ca2c8d8e2ce92e75c6c56cae86d097c3018585604051610382929190611f13565b60405180910390a350505050565b6060600080600190505b600254811161040657600160008281526020019081526020016000206002015442101580156103df575060016000828152602001908152602001600020600301544211155b156103f35781806103ef90611f4a565b9250505b80806103fe90611f4a565b91505061039a565b5060008167ffffffffffffffff811115610423576104226113ee565b5b60405190808252806020026020018201604052801561045c57816020015b61044961135a565b8152602001906001900390816104415790505b509050600080600190505b60025481116105cf57600160008281526020019081526020016000206002015442101580156104ac575060016000828152602001908152602001600020600301544211155b156105bc5760006001600083815260200190815260200160002090506040518060a00160405280826000015481526020018260010180546104ec90611c64565b80601f016020809104026020016040519081016040528092919081815260200182805461051890611c64565b80156105655780601f1061053a57610100808354040283529160200191610565565b820191906000526020600020905b81548152906001019060200180831161054857829003601f168201915b50505050508152602001826002015481526020018260030154815260200182600401805490508152508484815181106105a1576105a0611f92565b5b602002602001018190525082806105b790611f4a565b935050505b80806105c790611f4a565b915050610467565b5081935050505090565b6105e1611207565b6105eb600061128e565b565b606060006001600084815260200190815260200160002090508060030154421161064c576040517f08c379a00000000000000000000000000000000000000000000000000000000081526004016106439061200d565b60405180910390fd5b80600401805480602002602001604051908101604052809291908181526020016000905b828210156107da5783829060005260206000209060040201604051806080016040529081600082015481526020016001820180546106ad90611c64565b80601f01602080910402602001604051908101604052809291908181526020018280546106d990611c64565b80156107265780601f106106fb57610100808354040283529160200191610726565b820191906000526020600020905b81548152906001019060200180831161070957829003601f168201915b505050505081526020016002820154815260200160038201805461074990611c64565b80601f016020809104026020016040519081016040528092919081815260200182805461077590611c64565b80156107c25780601f10610797576101008083540402835291602001916107c2565b820191906000526020600020905b8154815290600101906020018083116107a557829003601f168201915b50505050508152505081526020019060010190610670565b50505050915050919050565b60008060009054906101000a900473ffffffffffffffffffffffffffffffffffffffff16905090565b60025481565b8160016000828152602001908152602001600020600201544210158015610852575060016000828152602001908152602001600020600301544211155b610891576040517f08c379a000000000000000000000000000000000000000000000000000000000815260040161088890612079565b60405180910390fd5b60006001600085815260200190815260200160002090508060050160003373ffffffffffffffffffffffffffffffffffffffff1673ffffffffffffffffffffffffffffffffffffffff16815260200190815260200160002060009054906101000a900460ff1615610937576040517f08c379a000000000000000000000000000000000000000000000000000000000815260040161092e906120e5565b60405180910390fd5b60008311801561094e575080600401805490508311155b61098d576040517f08c379a000000000000000000000000000000000000000000000000000000000815260040161098490612151565b60405180910390fd5b8060040160018461099e9190612171565b815481106109af576109ae611f92565b5b906000526020600020906004020160020160008154809291906109d190611f4a565b919050555060018160050160003373ffffffffffffffffffffffffffffffffffffffff1673ffffffffffffffffffffffffffffffffffffffff16815260200190815260200160002060006101000a81548160ff0219169083151502179055503373ffffffffffffffffffffffffffffffffffffffff1683857fd91ecafccf238642dccd41161308b3eebe62a12bc5819daf5164780c221ec95b60405160405180910390a450505050565b606060016000838152602001908152602001600020600401805480602002602001604051908101604052809291908181526020016000905b82821015610c1d578382906000526020600020906004020160405180608001604052908160008201548152602001600182018054610af090611c64565b80601f0160208091040260200160405190810160405280929190818152602001828054610b1c90611c64565b8015610b695780601f10610b3e57610100808354040283529160200191610b69565b820191906000526020600020905b815481529060010190602001808311610b4c57829003601f168201915b5050505050815260200160028201548152602001600382018054610b8c90611c64565b80601f0160208091040260200160405190810160405280929190818152602001828054610bb890611c64565b8015610c055780601f10610bda57610100808354040283529160200191610c05565b820191906000526020600020905b815481529060010190602001808311610be857829003601f168201915b50505050508152505081526020019060010190610ab3565b505050509050919050565b6060600080600190505b6002548111610c7b576001600082815260200190815260200160002060030154421115610c68578180610c6490611f4a565b9250505b8080610c7390611f4a565b915050610c32565b5060008167ffffffffffffffff811115610c9857610c976113ee565b5b604051908082528060200260200182016040528015610cd157816020015b610cbe61135a565b815260200190600190039081610cb65790505b509050600080600190505b6002548111610e21576001600082815260200190815260200160002060030154421115610e0e5760006001600083815260200190815260200160002090506040518060a0016040528082600001548152602001826001018054610d3e90611c64565b80601f0160208091040260200160405190810160405280929190818152602001828054610d6a90611c64565b8015610db75780601f10610d8c57610100808354040283529160200191610db7565b820191906000526020600020905b815481529060010190602001808311610d9a57829003601f168201915b5050505050815260200182600201548152602001826003015481526020018260040180549050815250848481518110610df357610df2611f92565b5b60200260200101819052508280610e0990611f4a565b935050505b8080610e1990611f4a565b915050610cdc565b5081935050505090565b610e33611207565b600073ffffffffffffffffffffffffffffffffffffffff168173ffffffffffffffffffffffffffffffffffffffff1603610ea55760006040517f1e4fbdf7000000000000000000000000000000000000000000000000000000008152600401610e9c9190611948565b60405180910390fd5b610eae8161128e565b50565b610eb9611207565b818111610efb576040517f08c379a0000000000000000000000000000000000000000000000000000000008152600401610ef290612217565b60405180910390fd5b60026000815480929190610f0e90611f4a565b919050555060006001600060025481526020019081526020016000209050600254816000018190555083816001019081610f489190611e41565b508281600201819055508181600301819055506002547fe7a0aae5d733e07e246dea86213a1ac1b0aa8554bde889bb75c12752f44e53d9858585604051610f9193929190612237565b60405180910390a250505050565b60006060600080606060006001600088815260200190815260200160002090508060000154816001018260020154836003015484600401838054610fe290611c64565b80601f016020809104026020016040519081016040528092919081815260200182805461100e90611c64565b801561105b5780601f106110305761010080835404028352916020019161105b565b820191906000526020600020905b81548152906001019060200180831161103e57829003601f168201915b5050505050935080805480602002602001604051908101604052809291908181526020016000905b828210156111ed5783829060005260206000209060040201604051806080016040529081600082015481526020016001820180546110c090611c64565b80601f01602080910402602001604051908101604052809291908181526020018280546110ec90611c64565b80156111395780601f1061110e57610100808354040283529160200191611139565b820191906000526020600020905b81548152906001019060200180831161111c57829003601f168201915b505050505081526020016002820154815260200160038201805461115c90611c64565b80601f016020809104026020016040519081016040528092919081815260200182805461118890611c64565b80156111d55780601f106111aa576101008083540402835291602001916111d5565b820191906000526020600020905b8154815290600101906020018083116111b857829003601f168201915b50505050508152505081526020019060010190611083565b505050509050955095509550955095505091939590929450565b61120f611352565b73ffffffffffffffffffffffffffffffffffffffff1661122d6107e6565b73ffffffffffffffffffffffffffffffffffffffff161461128c57611250611352565b6040517f118cdaa70000000000000000000000000000000000000000000000000000000081526004016112839190611948565b60405180910390fd5b565b60008060009054906101000a900473ffffffffffffffffffffffffffffffffffffffff169050816000806101000a81548173ffffffffffffffffffffffffffffffffffffffff021916908373ffffffffffffffffffffffffffffffffffffffff1602179055508173ffffffffffffffffffffffffffffffffffffffff168173ffffffffffffffffffffffffffffffffffffffff167f8be0079c531659141344cd1fd0a4f28419497f9722a3daafe3b4186f6b6457e060405160405180910390a35050565b600033905090565b6040518060a0016040528060008152602001606081526020016000815260200160008152602001600081525090565b6000604051905090565b600080fd5b600080fd5b6000819050919050565b6113b08161139d565b81146113bb57600080fd5b50565b6000813590506113cd816113a7565b92915050565b600080fd5b600080fd5b6000601f19601f8301169050919050565b7f4e487b7100000000000000000000000000000000000000000000000000000000600052604160045260246000fd5b611426826113dd565b810181811067ffffffffffffffff82111715611445576114446113ee565b5b80604052505050565b6000611458611389565b9050611464828261141d565b919050565b600067ffffffffffffffff821115611484576114836113ee565b5b61148d826113dd565b9050602081019050919050565b82818337600083830152505050565b60006114bc6114b784611469565b61144e565b9050828152602081018484840111156114d8576114d76113d8565b5b6114e384828561149a565b509392505050565b600082601f830112611500576114ff6113d3565b5b81356115108482602086016114a9565b91505092915050565b60008060006060848603121561153257611531611393565b5b6000611540868287016113be565b935050602084013567ffffffffffffffff81111561156157611560611398565b5b61156d868287016114eb565b925050604084013567ffffffffffffffff81111561158e5761158d611398565b5b61159a868287016114eb565b9150509250925092565b600081519050919050565b600082825260208201905092915050565b6000819050602082019050919050565b6115d98161139d565b82525050565b600081519050919050565b600082825260208201905092915050565b60005b838110156116195780820151818401526020810190506115fe565b60008484015250505050565b6000611630826115df565b61163a81856115ea565b935061164a8185602086016115fb565b611653816113dd565b840191505092915050565b600060a08301600083015161167660008601826115d0565b506020830151848203602086015261168e8282611625565b91505060408301516116a360408601826115d0565b5060608301516116b660608601826115d0565b5060808301516116c960808601826115d0565b508091505092915050565b60006116e0838361165e565b905092915050565b6000602082019050919050565b6000611700826115a4565b61170a81856115af565b93508360208202850161171c856115c0565b8060005b85811015611758578484038952815161173985826116d4565b9450611744836116e8565b925060208a01995050600181019050611720565b50829750879550505050505092915050565b6000602082019050818103600083015261178481846116f5565b905092915050565b6000602082840312156117a2576117a1611393565b5b60006117b0848285016113be565b91505092915050565b600081519050919050565b600082825260208201905092915050565b6000819050602082019050919050565b60006080830160008301516117fd60008601826115d0565b50602083015184820360208601526118158282611625565b915050604083015161182a60408601826115d0565b50606083015184820360608601526118428282611625565b9150508091505092915050565b600061185b83836117e5565b905092915050565b6000602082019050919050565b600061187b826117b9565b61188581856117c4565b935083602082028501611897856117d5565b8060005b858110156118d357848403895281516118b4858261184f565b94506118bf83611863565b925060208a0199505060018101905061189b565b50829750879550505050505092915050565b600060208201905081810360008301526118ff8184611870565b905092915050565b600073ffffffffffffffffffffffffffffffffffffffff82169050919050565b600061193282611907565b9050919050565b61194281611927565b82525050565b600060208201905061195d6000830184611939565b92915050565b61196c8161139d565b82525050565b60006020820190506119876000830184611963565b92915050565b600080604083850312156119a4576119a3611393565b5b60006119b2858286016113be565b92505060206119c3858286016113be565b9150509250929050565b6119d681611927565b81146119e157600080fd5b50565b6000813590506119f3816119cd565b92915050565b600060208284031215611a0f57611a0e611393565b5b6000611a1d848285016119e4565b91505092915050565b600080600060608486031215611a3f57611a3e611393565b5b600084013567ffffffffffffffff811115611a5d57611a5c611398565b5b611a69868287016114eb565b9350506020611a7a868287016113be565b9250506040611a8b868287016113be565b9150509250925092565b600082825260208201905092915050565b6000611ab1826115df565b611abb8185611a95565b9350611acb8185602086016115fb565b611ad4816113dd565b840191505092915050565b600060a082019050611af46000830188611963565b8181036020830152611b068187611aa6565b9050611b156040830186611963565b611b226060830185611963565b8181036080830152611b348184611870565b90509695505050505050565b7f43616e6e6f7420616464207061727469657320746f206120737461727465642060008201527f656c656374696f6e000000000000000000000000000000000000000000000000602082015250565b6000611b9c602883611a95565b9150611ba782611b40565b604082019050919050565b60006020820190508181036000830152611bcb81611b8f565b9050919050565b7f4e487b7100000000000000000000000000000000000000000000000000000000600052601160045260246000fd5b6000611c0c8261139d565b9150611c178361139d565b9250828201905080821115611c2f57611c2e611bd2565b5b92915050565b7f4e487b7100000000000000000000000000000000000000000000000000000000600052602260045260246000fd5b60006002820490506001821680611c7c57607f821691505b602082108103611c8f57611c8e611c35565b5b50919050565b60008190508160005260206000209050919050565b60006020601f8301049050919050565b600082821b905092915050565b600060088302611cf77fffffffffffffffffffffffffffffffffffffffffffffffffffffffffffffffff82611cba565b611d018683611cba565b95508019841693508086168417925050509392505050565b6000819050919050565b6000611d3e611d39611d348461139d565b611d19565b61139d565b9050919050565b6000819050919050565b611d5883611d23565b611d6c611d6482611d45565b848454611cc7565b825550505050565b600090565b611d81611d74565b611d8c818484611d4f565b505050565b5b81811015611db057611da5600082611d79565b600181019050611d92565b5050565b601f821115611df557611dc681611c95565b611dcf84611caa565b81016020851015611dde578190505b611df2611dea85611caa565b830182611d91565b50505b505050565b600082821c905092915050565b6000611e1860001984600802611dfa565b1980831691505092915050565b6000611e318383611e07565b9150826002028217905092915050565b611e4a826115df565b67ffffffffffffffff811115611e6357611e626113ee565b5b611e6d8254611c64565b611e78828285611db4565b600060209050601f831160018114611eab5760008415611e99578287015190505b611ea38582611e25565b865550611f0b565b601f198416611eb986611c95565b60005b82811015611ee157848901518255600182019150602085019450602081019050611ebc565b86831015611efe5784890151611efa601f891682611e07565b8355505b6001600288020188555050505b505050505050565b60006040820190508181036000830152611f2d8185611aa6565b90508181036020830152611f418184611aa6565b90509392505050565b6000611f558261139d565b91507fffffffffffffffffffffffffffffffffffffffffffffffffffffffffffffffff8203611f8757611f86611bd2565b5b600182019050919050565b7f4e487b7100000000000000000000000000000000000000000000000000000000600052603260045260246000fd5b7f456c656374696f6e206973207374696c6c206f6e676f696e6700000000000000600082015250565b6000611ff7601983611a95565b915061200282611fc1565b602082019050919050565b6000602082019050818103600083015261202681611fea565b9050919050565b7f456c656374696f6e20697320636c6f7365640000000000000000000000000000600082015250565b6000612063601283611a95565b915061206e8261202d565b602082019050919050565b6000602082019050818103600083015261209281612056565b9050919050565b7f596f75206861766520616c726561647920766f74656400000000000000000000600082015250565b60006120cf601683611a95565b91506120da82612099565b602082019050919050565b600060208201905081810360008301526120fe816120c2565b9050919050565b7f496e76616c696420706172747920494400000000000000000000000000000000600082015250565b600061213b601083611a95565b915061214682612105565b602082019050919050565b6000602082019050818103600083015261216a8161212e565b9050919050565b600061217c8261139d565b91506121878361139d565b925082820390508181111561219f5761219e611bd2565b5b92915050565b7f456e642074696d65206d7573742062652061667465722073746172742074696d60008201527f6500000000000000000000000000000000000000000000000000000000000000602082015250565b6000612201602183611a95565b915061220c826121a5565b604082019050919050565b60006020820190508181036000830152612230816121f4565b9050919050565b600060608201905081810360008301526122518186611aa6565b90506122606020830185611963565b61226d6040830184611963565b94935050505056fea2646970667358221220628d5b6a94dba8c7ec57b61d1ffcc2560f21e91b03b72bb50280f1a9a06947c364736f6c63430008140033",
  "linkReferences": {},
  "deployedLinkReferences": {}
}