{
  "_format": "hh-sol-artifact-1",
  "contractName": "VotingSystem",
  "sourceName": "contracts/VotingSystem.sol",
  "abi": [
    {
      "inputs": [],
      "stateMutability": "nonpayable",
      "type": "constructor"
    },
    {
      "inputs": [
        {
          "internalType": "address",
          "name": "owner",
          "type": "address"
        }
      ],
      "name": "OwnableInvalidOwner",
      "type": "error"
    },
    {
      "inputs": [
        {
          "internalType": "address",
          "name": "account",
          "type": "address"
        }
      ],
      "name": "OwnableUnauthorizedAccount",
      "type": "error"
    },
    {
      "anonymous": false,
      "inputs": [
        {
          "indexed": true,
          "internalType": "uint256",
          "name": "electionId",
          "type": "uint256"
        },
        {
          "indexed": false,
          "internalType": "string",
          "name": "name",
          "type": "string"
        },
        {
          "indexed": false,
          "internalType": "uint256",
          "name": "startTime",
          "type": "uint256"
        },
        {
          "indexed": false,
          "internalType": "uint256",
          "name": "endTime",
          "type": "uint256"
        }
      ],
      "name": "ElectionCreated",
      "type": "event"
    },
    {
      "anonymous": false,
      "inputs": [
        {
          "indexed": true,
          "internalType": "address",
          "name": "previousOwner",
          "type": "address"
        },
        {
          "indexed": true,
          "internalType": "address",
          "name": "newOwner",
          "type": "address"
        }
      ],
      "name": "OwnershipTransferred",
      "type": "event"
    },
    {
      "anonymous": false,
      "inputs": [
        {
          "indexed": true,
          "internalType": "uint256",
          "name": "electionId",
          "type": "uint256"
        },
        {
          "indexed": true,
          "internalType": "uint256",
          "name": "partyId",
          "type": "uint256"
        },
        {
          "indexed": false,
          "internalType": "string",
          "name": "name",
          "type": "string"
        },
        {
          "indexed": false,
          "internalType": "string",
          "name": "description",
          "type": "string"
        }
      ],
      "name": "PartyAdded",
      "type": "event"
    },
    {
      "anonymous": false,
      "inputs": [
        {
          "indexed": true,
          "internalType": "uint256",
          "name": "electionId",
          "type": "uint256"
        },
        {
          "indexed": true,
          "internalType": "uint256",
          "name": "partyId",
          "type": "uint256"
        },
        {
          "indexed": true,
          "internalType": "address",
          "name": "voter",
          "type": "address"
        }
      ],
      "name": "Voted",
      "type": "event"
    },
    {
      "inputs": [
        {
          "internalType": "uint256",
          "name": "electionId",
          "type": "uint256"
        },
        {
          "internalType": "string",
          "name": "_partyName",
          "type": "string"
        },
        {
          "internalType": "string",
          "name": "_description",
          "type": "string"
        }
      ],
      "name": "addParty",
      "outputs": [],
      "stateMutability": "nonpayable",
      "type": "function"
    },
    {
      "inputs": [
        {
          "internalType": "string",
          "name": "_name",
          "type": "string"
        },
        {
          "internalType": "uint256",
          "name": "_startTime",
          "type": "uint256"
        },
        {
          "internalType": "uint256",
          "name": "_endTime",
          "type": "uint256"
        }
      ],
      "name": "createElection",
      "outputs": [],
      "stateMutability": "nonpayable",
      "type": "function"
    },
    {
      "inputs": [],
      "name": "electionCount",
      "outputs": [
        {
          "internalType": "uint256",
          "name": "",
          "type": "uint256"
        }
      ],
      "stateMutability": "view",
      "type": "function"
    },
    {
      "inputs": [],
      "name": "getAllOngoingElections",
      "outputs": [
        {
          "components": [
            {
              "internalType": "uint256",
              "name": "id",
              "type": "uint256"
            },
            {
              "internalType": "string",
              "name": "name",
              "type": "string"
            },
            {
              "internalType": "uint256",
              "name": "startTime",
              "type": "uint256"
            },
            {
              "internalType": "uint256",
              "name": "endTime",
              "type": "uint256"
            },
            {
              "internalType": "uint256",
              "name": "partyCount",
              "type": "uint256"
            }
          ],
          "internalType": "struct VotingSystem.SimpleElectionDetails[]",
          "name": "",
          "type": "tuple[]"
        }
      ],
      "stateMutability": "view",
      "type": "function"
    },
    {
      "inputs": [
        {
          "internalType": "uint256",
          "name": "electionId",
          "type": "uint256"
        }
      ],
      "name": "getElectionDetails",
      "outputs": [
        {
          "internalType": "uint256",
          "name": "id",
          "type": "uint256"
        },
        {
          "internalType": "string",
          "name": "name",
          "type": "string"
        },
        {
          "internalType": "uint256",
          "name": "startTime",
          "type": "uint256"
        },
        {
          "internalType": "uint256",
          "name": "endTime",
          "type": "uint256"
        },
        {
          "components": [
            {
              "internalType": "uint256",
              "name": "id",
              "type": "uint256"
            },
            {
              "internalType": "string",
              "name": "name",
              "type": "string"
            },
            {
              "internalType": "uint256",
              "name": "voteCount",
              "type": "uint256"
            },
            {
              "internalType": "string",
              "name": "description",
              "type": "string"
            }
          ],
          "internalType": "struct VotingSystem.Party[]",
          "name": "parties",
          "type": "tuple[]"
        }
      ],
      "stateMutability": "view",
      "type": "function"
    },
    {
      "inputs": [
        {
          "internalType": "uint256",
          "name": "electionId",
          "type": "uint256"
        }
      ],
      "name": "getElectionParties",
      "outputs": [
        {
          "components": [
            {
              "internalType": "uint256",
              "name": "id",
              "type": "uint256"
            },
            {
              "internalType": "string",
              "name": "name",
              "type": "string"
            },
            {
              "internalType": "uint256",
              "name": "voteCount",
              "type": "uint256"
            },
            {
              "internalType": "string",
              "name": "description",
              "type": "string"
            }
          ],
          "internalType": "struct VotingSystem.Party[]",
          "name": "",
          "type": "tuple[]"
        }
      ],
      "stateMutability": "view",
      "type": "function"
    },
    {
      "inputs": [
        {
          "internalType": "uint256",
          "name": "electionId",
          "type": "uint256"
        }
      ],
      "name": "getResults",
      "outputs": [
        {
          "components": [
            {
              "internalType": "uint256",
              "name": "id",
              "type": "uint256"
            },
            {
              "internalType": "string",
              "name": "name",
              "type": "string"
            },
            {
              "internalType": "uint256",
              "name": "voteCount",
              "type": "uint256"
            },
            {
              "internalType": "string",
              "name": "description",
              "type": "string"
            }
          ],
          "internalType": "struct VotingSystem.Party[]",
          "name": "",
          "type": "tuple[]"
        }
      ],
      "stateMutability": "view",
      "type": "function"
    },
    {
      "inputs": [],
      "name": "owner",
      "outputs": [
        {
          "internalType": "address",
          "name": "",
          "type": "address"
        }
      ],
      "stateMutability": "view",
      "type": "function"
    },
    {
      "inputs": [],
      "name": "renounceOwnership",
      "outputs": [],
      "stateMutability": "nonpayable",
      "type": "function"
    },
    {
      "inputs": [
        {
          "internalType": "address",
          "name": "newOwner",
          "type": "address"
        }
      ],
      "name": "transferOwnership",
      "outputs": [],
      "stateMutability": "nonpayable",
      "type": "function"
    },
    {
      "inputs": [
        {
          "internalType": "uint256",
          "name": "electionId",
          "type": "uint256"
        },
        {
          "internalType": "uint256",
          "name": "partyId",
          "type": "uint256"
        }
      ],
      "name": "vote",
      "outputs": [],
      "stateMutability": "nonpayable",
      "type": "function"
    }
  ],
  "bytecode": "0x60806040523480156200001157600080fd5b5033600073ffffffffffffffffffffffffffffffffffffffff168173ffffffffffffffffffffffffffffffffffffffff1603620000885760006040517f1e4fbdf70000000000000000000000000000000000000000000000000000000081526004016200007f9190620001a9565b60405180910390fd5b6200009981620000a060201b60201c565b50620001c6565b60008060009054906101000a900473ffffffffffffffffffffffffffffffffffffffff169050816000806101000a81548173ffffffffffffffffffffffffffffffffffffffff021916908373ffffffffffffffffffffffffffffffffffffffff1602179055508173ffffffffffffffffffffffffffffffffffffffff168173ffffffffffffffffffffffffffffffffffffffff167f8be0079c531659141344cd1fd0a4f28419497f9722a3daafe3b4186f6b6457e060405160405180910390a35050565b600073ffffffffffffffffffffffffffffffffffffffff82169050919050565b6000620001918262000164565b9050919050565b620001a38162000184565b82525050565b6000602082019050620001c0600083018462000198565b92915050565b61207f80620001d66000396000f3fe608060405234801561001057600080fd5b50600436106100a95760003560e01c8063997d283011610071578063997d283014610140578063b384abef1461015e578063d13d3ce21461017a578063f2fde38b146101aa578063f49a7a17146101c6578063f6049924146101e2576100a9565b80631867cdad146100ae5780634d08644c146100ca578063715018a6146100e857806381a60c0d146100f25780638da5cb5b14610122575b600080fd5b6100c860048036038101906100c391906112ed565b610216565b005b6100d2610367565b6040516100df919061153e565b60405180910390f35b6100f06105b0565b005b61010c60048036038101906101079190611560565b6105c4565b60405161011991906116b9565b60405180910390f35b61012a6107bd565b604051610137919061171c565b60405180910390f35b6101486107e6565b6040516101559190611746565b60405180910390f35b61017860048036038101906101739190611761565b6107ec565b005b610194600480360381019061018f9190611560565b610a52565b6040516101a191906116b9565b60405180910390f35b6101c460048036038101906101bf91906117cd565b610bff565b005b6101e060048036038101906101db91906117fa565b610c85565b005b6101fc60048036038101906101f79190611560565b610d73565b60405161020d9594939291906118b3565b60405180910390f35b61021e610fdb565b60006001600085815260200190815260200160002090508060020154421061027b576040517f08c379a000000000000000000000000000000000000000000000000000000000815260040161027290611986565b60405180910390fd5b8060040160405180608001604052806001846004018054905061029e91906119d5565b8152602001858152602001600081526020018481525090806001815401808255809150506001900390600052602060002090600402016000909190919091506000820151816000015560208201518160010190816102fc9190611c15565b5060408201518160020155606082015181600301908161031c9190611c15565b5050508060040180549050847fcae1857fb978eeb01d5b4733660d52ca2c8d8e2ce92e75c6c56cae86d097c3018585604051610359929190611ce7565b60405180910390a350505050565b6060600080600190505b60025481116103dd57600160008281526020019081526020016000206002015442101580156103b6575060016000828152602001908152602001600020600301544211155b156103ca5781806103c690611d1e565b9250505b80806103d590611d1e565b915050610371565b5060008167ffffffffffffffff8111156103fa576103f96111c2565b5b60405190808252806020026020018201604052801561043357816020015b61042061112e565b8152602001906001900390816104185790505b509050600080600190505b60025481116105a65760016000828152602001908152602001600020600201544210158015610483575060016000828152602001908152602001600020600301544211155b156105935760006001600083815260200190815260200160002090506040518060a00160405280826000015481526020018260010180546104c390611a38565b80601f01602080910402602001604051908101604052809291908181526020018280546104ef90611a38565b801561053c5780601f106105115761010080835404028352916020019161053c565b820191906000526020600020905b81548152906001019060200180831161051f57829003601f168201915b505050505081526020018260020154815260200182600301548152602001826004018054905081525084848151811061057857610577611d66565b5b6020026020010181905250828061058e90611d1e565b935050505b808061059e90611d1e565b91505061043e565b5081935050505090565b6105b8610fdb565b6105c26000611062565b565b6060600060016000848152602001908152602001600020905080600301544211610623576040517f08c379a000000000000000000000000000000000000000000000000000000000815260040161061a90611de1565b60405180910390fd5b80600401805480602002602001604051908101604052809291908181526020016000905b828210156107b157838290600052602060002090600402016040518060800160405290816000820154815260200160018201805461068490611a38565b80601f01602080910402602001604051908101604052809291908181526020018280546106b090611a38565b80156106fd5780601f106106d2576101008083540402835291602001916106fd565b820191906000526020600020905b8154815290600101906020018083116106e057829003601f168201915b505050505081526020016002820154815260200160038201805461072090611a38565b80601f016020809104026020016040519081016040528092919081815260200182805461074c90611a38565b80156107995780601f1061076e57610100808354040283529160200191610799565b820191906000526020600020905b81548152906001019060200180831161077c57829003601f168201915b50505050508152505081526020019060010190610647565b50505050915050919050565b60008060009054906101000a900473ffffffffffffffffffffffffffffffffffffffff16905090565b60025481565b8160016000828152602001908152602001600020600201544210158015610829575060016000828152602001908152602001600020600301544211155b610868576040517f08c379a000000000000000000000000000000000000000000000000000000000815260040161085f90611e4d565b60405180910390fd5b60006001600085815260200190815260200160002090508060050160003373ffffffffffffffffffffffffffffffffffffffff1673ffffffffffffffffffffffffffffffffffffffff16815260200190815260200160002060009054906101000a900460ff161561090e576040517f08c379a000000000000000000000000000000000000000000000000000000000815260040161090590611eb9565b60405180910390fd5b600083118015610925575080600401805490508311155b610964576040517f08c379a000000000000000000000000000000000000000000000000000000000815260040161095b90611f25565b60405180910390fd5b806004016001846109759190611f45565b8154811061098657610985611d66565b5b906000526020600020906004020160020160008154809291906109a890611d1e565b919050555060018160050160003373ffffffffffffffffffffffffffffffffffffffff1673ffffffffffffffffffffffffffffffffffffffff16815260200190815260200160002060006101000a81548160ff0219169083151502179055503373ffffffffffffffffffffffffffffffffffffffff1683857fd91ecafccf238642dccd41161308b3eebe62a12bc5819daf5164780c221ec95b60405160405180910390a450505050565b606060016000838152602001908152602001600020600401805480602002602001604051908101604052809291908181526020016000905b82821015610bf4578382906000526020600020906004020160405180608001604052908160008201548152602001600182018054610ac790611a38565b80601f0160208091040260200160405190810160405280929190818152602001828054610af390611a38565b8015610b405780601f10610b1557610100808354040283529160200191610b40565b820191906000526020600020905b815481529060010190602001808311610b2357829003601f168201915b5050505050815260200160028201548152602001600382018054610b6390611a38565b80601f0160208091040260200160405190810160405280929190818152602001828054610b8f90611a38565b8015610bdc5780601f10610bb157610100808354040283529160200191610bdc565b820191906000526020600020905b815481529060010190602001808311610bbf57829003601f168201915b50505050508152505081526020019060010190610a8a565b505050509050919050565b610c07610fdb565b600073ffffffffffffffffffffffffffffffffffffffff168173ffffffffffffffffffffffffffffffffffffffff1603610c795760006040517f1e4fbdf7000000000000000000000000000000000000000000000000000000008152600401610c70919061171c565b60405180910390fd5b610c8281611062565b50565b610c8d610fdb565b818111610ccf576040517f08c379a0000000000000000000000000000000000000000000000000000000008152600401610cc690611feb565b60405180910390fd5b60026000815480929190610ce290611d1e565b919050555060006001600060025481526020019081526020016000209050600254816000018190555083816001019081610d1c9190611c15565b508281600201819055508181600301819055506002547fe7a0aae5d733e07e246dea86213a1ac1b0aa8554bde889bb75c12752f44e53d9858585604051610d659392919061200b565b60405180910390a250505050565b60006060600080606060006001600088815260200190815260200160002090508060000154816001018260020154836003015484600401838054610db690611a38565b80601f0160208091040260200160405190810160405280929190818152602001828054610de290611a38565b8015610e2f5780601f10610e0457610100808354040283529160200191610e2f565b820191906000526020600020905b815481529060010190602001808311610e1257829003601f168201915b5050505050935080805480602002602001604051908101604052809291908181526020016000905b82821015610fc1578382906000526020600020906004020160405180608001604052908160008201548152602001600182018054610e9490611a38565b80601f0160208091040260200160405190810160405280929190818152602001828054610ec090611a38565b8015610f0d5780601f10610ee257610100808354040283529160200191610f0d565b820191906000526020600020905b815481529060010190602001808311610ef057829003601f168201915b5050505050815260200160028201548152602001600382018054610f3090611a38565b80601f0160208091040260200160405190810160405280929190818152602001828054610f5c90611a38565b8015610fa95780601f10610f7e57610100808354040283529160200191610fa9565b820191906000526020600020905b815481529060010190602001808311610f8c57829003601f168201915b50505050508152505081526020019060010190610e57565b505050509050955095509550955095505091939590929450565b610fe3611126565b73ffffffffffffffffffffffffffffffffffffffff166110016107bd565b73ffffffffffffffffffffffffffffffffffffffff161461106057611024611126565b6040517f118cdaa7000000000000000000000000000000000000000000000000000000008152600401611057919061171c565b60405180910390fd5b565b60008060009054906101000a900473ffffffffffffffffffffffffffffffffffffffff169050816000806101000a81548173ffffffffffffffffffffffffffffffffffffffff021916908373ffffffffffffffffffffffffffffffffffffffff1602179055508173ffffffffffffffffffffffffffffffffffffffff168173ffffffffffffffffffffffffffffffffffffffff167f8be0079c531659141344cd1fd0a4f28419497f9722a3daafe3b4186f6b6457e060405160405180910390a35050565b600033905090565b6040518060a0016040528060008152602001606081526020016000815260200160008152602001600081525090565b6000604051905090565b600080fd5b600080fd5b6000819050919050565b61118481611171565b811461118f57600080fd5b50565b6000813590506111a18161117b565b92915050565b600080fd5b600080fd5b6000601f19601f8301169050919050565b7f4e487b7100000000000000000000000000000000000000000000000000000000600052604160045260246000fd5b6111fa826111b1565b810181811067ffffffffffffffff82111715611219576112186111c2565b5b80604052505050565b600061122c61115d565b905061123882826111f1565b919050565b600067ffffffffffffffff821115611258576112576111c2565b5b611261826111b1565b9050602081019050919050565b82818337600083830152505050565b600061129061128b8461123d565b611222565b9050828152602081018484840111156112ac576112ab6111ac565b5b6112b784828561126e565b509392505050565b600082601f8301126112d4576112d36111a7565b5b81356112e484826020860161127d565b91505092915050565b60008060006060848603121561130657611305611167565b5b600061131486828701611192565b935050602084013567ffffffffffffffff8111156113355761133461116c565b5b611341868287016112bf565b925050604084013567ffffffffffffffff8111156113625761136161116c565b5b61136e868287016112bf565b9150509250925092565b600081519050919050565b600082825260208201905092915050565b6000819050602082019050919050565b6113ad81611171565b82525050565b600081519050919050565b600082825260208201905092915050565b60005b838110156113ed5780820151818401526020810190506113d2565b60008484015250505050565b6000611404826113b3565b61140e81856113be565b935061141e8185602086016113cf565b611427816111b1565b840191505092915050565b600060a08301600083015161144a60008601826113a4565b506020830151848203602086015261146282826113f9565b915050604083015161147760408601826113a4565b50606083015161148a60608601826113a4565b50608083015161149d60808601826113a4565b508091505092915050565b60006114b48383611432565b905092915050565b6000602082019050919050565b60006114d482611378565b6114de8185611383565b9350836020820285016114f085611394565b8060005b8581101561152c578484038952815161150d85826114a8565b9450611518836114bc565b925060208a019950506001810190506114f4565b50829750879550505050505092915050565b6000602082019050818103600083015261155881846114c9565b905092915050565b60006020828403121561157657611575611167565b5b600061158484828501611192565b91505092915050565b600081519050919050565b600082825260208201905092915050565b6000819050602082019050919050565b60006080830160008301516115d160008601826113a4565b50602083015184820360208601526115e982826113f9565b91505060408301516115fe60408601826113a4565b506060830151848203606086015261161682826113f9565b9150508091505092915050565b600061162f83836115b9565b905092915050565b6000602082019050919050565b600061164f8261158d565b6116598185611598565b93508360208202850161166b856115a9565b8060005b858110156116a757848403895281516116888582611623565b945061169383611637565b925060208a0199505060018101905061166f565b50829750879550505050505092915050565b600060208201905081810360008301526116d38184611644565b905092915050565b600073ffffffffffffffffffffffffffffffffffffffff82169050919050565b6000611706826116db565b9050919050565b611716816116fb565b82525050565b6000602082019050611731600083018461170d565b92915050565b61174081611171565b82525050565b600060208201905061175b6000830184611737565b92915050565b6000806040838503121561177857611777611167565b5b600061178685828601611192565b925050602061179785828601611192565b9150509250929050565b6117aa816116fb565b81146117b557600080fd5b50565b6000813590506117c7816117a1565b92915050565b6000602082840312156117e3576117e2611167565b5b60006117f1848285016117b8565b91505092915050565b60008060006060848603121561181357611812611167565b5b600084013567ffffffffffffffff8111156118315761183061116c565b5b61183d868287016112bf565b935050602061184e86828701611192565b925050604061185f86828701611192565b9150509250925092565b600082825260208201905092915050565b6000611885826113b3565b61188f8185611869565b935061189f8185602086016113cf565b6118a8816111b1565b840191505092915050565b600060a0820190506118c86000830188611737565b81810360208301526118da818761187a565b90506118e96040830186611737565b6118f66060830185611737565b81810360808301526119088184611644565b90509695505050505050565b7f43616e6e6f7420616464207061727469657320746f206120737461727465642060008201527f656c656374696f6e000000000000000000000000000000000000000000000000602082015250565b6000611970602883611869565b915061197b82611914565b604082019050919050565b6000602082019050818103600083015261199f81611963565b9050919050565b7f4e487b7100000000000000000000000000000000000000000000000000000000600052601160045260246000fd5b60006119e082611171565b91506119eb83611171565b9250828201905080821115611a0357611a026119a6565b5b92915050565b7f4e487b7100000000000000000000000000000000000000000000000000000000600052602260045260246000fd5b60006002820490506001821680611a5057607f821691505b602082108103611a6357611a62611a09565b5b50919050565b60008190508160005260206000209050919050565b60006020601f8301049050919050565b600082821b905092915050565b600060088302611acb7fffffffffffffffffffffffffffffffffffffffffffffffffffffffffffffffff82611a8e565b611ad58683611a8e565b95508019841693508086168417925050509392505050565b6000819050919050565b6000611b12611b0d611b0884611171565b611aed565b611171565b9050919050565b6000819050919050565b611b2c83611af7565b611b40611b3882611b19565b848454611a9b565b825550505050565b600090565b611b55611b48565b611b60818484611b23565b505050565b5b81811015611b8457611b79600082611b4d565b600181019050611b66565b5050565b601f821115611bc957611b9a81611a69565b611ba384611a7e565b81016020851015611bb2578190505b611bc6611bbe85611a7e565b830182611b65565b50505b505050565b600082821c905092915050565b6000611bec60001984600802611bce565b1980831691505092915050565b6000611c058383611bdb565b9150826002028217905092915050565b611c1e826113b3565b67ffffffffffffffff811115611c3757611c366111c2565b5b611c418254611a38565b611c4c828285611b88565b600060209050601f831160018114611c7f5760008415611c6d578287015190505b611c778582611bf9565b865550611cdf565b601f198416611c8d86611a69565b60005b82811015611cb557848901518255600182019150602085019450602081019050611c90565b86831015611cd25784890151611cce601f891682611bdb565b8355505b6001600288020188555050505b505050505050565b60006040820190508181036000830152611d01818561187a565b90508181036020830152611d15818461187a565b90509392505050565b6000611d2982611171565b91507fffffffffffffffffffffffffffffffffffffffffffffffffffffffffffffffff8203611d5b57611d5a6119a6565b5b600182019050919050565b7f4e487b7100000000000000000000000000000000000000000000000000000000600052603260045260246000fd5b7f456c656374696f6e206973207374696c6c206f6e676f696e6700000000000000600082015250565b6000611dcb601983611869565b9150611dd682611d95565b602082019050919050565b60006020820190508181036000830152611dfa81611dbe565b9050919050565b7f456c656374696f6e20697320636c6f7365640000000000000000000000000000600082015250565b6000611e37601283611869565b9150611e4282611e01565b602082019050919050565b60006020820190508181036000830152611e6681611e2a565b9050919050565b7f596f75206861766520616c726561647920766f74656400000000000000000000600082015250565b6000611ea3601683611869565b9150611eae82611e6d565b602082019050919050565b60006020820190508181036000830152611ed281611e96565b9050919050565b7f496e76616c696420706172747920494400000000000000000000000000000000600082015250565b6000611f0f601083611869565b9150611f1a82611ed9565b602082019050919050565b60006020820190508181036000830152611f3e81611f02565b9050919050565b6000611f5082611171565b9150611f5b83611171565b9250828203905081811115611f7357611f726119a6565b5b92915050565b7f456e642074696d65206d7573742062652061667465722073746172742074696d60008201527f6500000000000000000000000000000000000000000000000000000000000000602082015250565b6000611fd5602183611869565b9150611fe082611f79565b604082019050919050565b6000602082019050818103600083015261200481611fc8565b9050919050565b60006060820190508181036000830152612025818661187a565b90506120346020830185611737565b6120416040830184611737565b94935050505056fea2646970667358221220309454d833906540be4a78a40cef545a241be574142a2f8253ca8aa1f60bedf564736f6c63430008140033",
  "linkReferences": {},
  "deployedLinkReferences": {}
}