{
  "_format": "hh-sol-artifact-1",
  "contractName": "VotingSystem",
  "sourceName": "contracts/VotingSystem.sol",
  "abi": [
    {
      "inputs": [],
      "stateMutability": "nonpayable",
      "type": "constructor"
    },
    {
      "inputs": [
        {
          "internalType": "uint256",
          "name": "electionId",
          "type": "uint256"
        },
        {
          "internalType": "string",
          "name": "_partyName",
          "type": "string"
        }
      ],
      "name": "addParty",
      "outputs": [],
      "stateMutability": "nonpayable",
      "type": "function"
    },
    {
      "inputs": [],
      "name": "admin",
      "outputs": [
        {
          "internalType": "address",
          "name": "",
          "type": "address"
        }
      ],
      "stateMutability": "view",
      "type": "function"
    },
    {
      "inputs": [
        {
          "internalType": "address",
          "name": "newAdmin",
          "type": "address"
        }
      ],
      "name": "changeAdmin",
      "outputs": [],
      "stateMutability": "nonpayable",
      "type": "function"
    },
    {
      "inputs": [
        {
          "internalType": "string",
          "name": "_name",
          "type": "string"
        },
        {
          "internalType": "uint256",
          "name": "_startTime",
          "type": "uint256"
        },
        {
          "internalType": "uint256",
          "name": "_endTime",
          "type": "uint256"
        }
      ],
      "name": "createElection",
      "outputs": [],
      "stateMutability": "nonpayable",
      "type": "function"
    },
    {
      "inputs": [],
      "name": "electionCount",
      "outputs": [
        {
          "internalType": "uint256",
          "name": "",
          "type": "uint256"
        }
      ],
      "stateMutability": "view",
      "type": "function"
    },
    {
      "inputs": [
        {
          "internalType": "uint256",
          "name": "",
          "type": "uint256"
        }
      ],
      "name": "elections",
      "outputs": [
        {
          "internalType": "uint256",
          "name": "id",
          "type": "uint256"
        },
        {
          "internalType": "string",
          "name": "name",
          "type": "string"
        },
        {
          "internalType": "uint256",
          "name": "startTime",
          "type": "uint256"
        },
        {
          "internalType": "uint256",
          "name": "endTime",
          "type": "uint256"
        },
        {
          "internalType": "uint256",
          "name": "partyCount",
          "type": "uint256"
        }
      ],
      "stateMutability": "view",
      "type": "function"
    },
    {
      "inputs": [
        {
          "internalType": "uint256",
          "name": "electionId",
          "type": "uint256"
        }
      ],
      "name": "getResults",
      "outputs": [
        {
          "components": [
            {
              "internalType": "uint256",
              "name": "id",
              "type": "uint256"
            },
            {
              "internalType": "string",
              "name": "name",
              "type": "string"
            },
            {
              "internalType": "uint256",
              "name": "voteCount",
              "type": "uint256"
            }
          ],
          "internalType": "struct VotingSystem.Party[]",
          "name": "",
          "type": "tuple[]"
        }
      ],
      "stateMutability": "view",
      "type": "function"
    },
    {
      "inputs": [
        {
          "internalType": "uint256",
          "name": "",
          "type": "uint256"
        },
        {
          "internalType": "address",
          "name": "",
          "type": "address"
        }
      ],
      "name": "hasVoted",
      "outputs": [
        {
          "internalType": "bool",
          "name": "",
          "type": "bool"
        }
      ],
      "stateMutability": "view",
      "type": "function"
    },
    {
      "inputs": [
        {
          "internalType": "uint256",
          "name": "electionId",
          "type": "uint256"
        },
        {
          "internalType": "uint256",
          "name": "partyId",
          "type": "uint256"
        }
      ],
      "name": "vote",
      "outputs": [],
      "stateMutability": "nonpayable",
      "type": "function"
    },
    {
      "inputs": [
        {
          "internalType": "uint256",
          "name": "",
          "type": "uint256"
        },
        {
          "internalType": "address",
          "name": "",
          "type": "address"
        }
      ],
      "name": "voterRegistry",
      "outputs": [
        {
          "internalType": "uint256",
          "name": "",
          "type": "uint256"
        }
      ],
      "stateMutability": "view",
      "type": "function"
    }
  ],
  "bytecode": "0x608060405234801561001057600080fd5b50336000806101000a81548173ffffffffffffffffffffffffffffffffffffffff021916908373ffffffffffffffffffffffffffffffffffffffff1602179055506119ba806100606000396000f3fe608060405234801561001057600080fd5b506004361061009e5760003560e01c8063997d283011610066578063997d283014610183578063b384abef146101a1578063f49a7a17146101bd578063f5ea0106146101d9578063f851a440146101f55761009e565b806343859632146100a3578063557ff021146100d35780635e6fef011461010357806381a60c0d146101375780638f28397014610167575b600080fd5b6100bd60048036038101906100b89190610c45565b610213565b6040516100ca9190610ca0565b60405180910390f35b6100ed60048036038101906100e89190610c45565b610242565b6040516100fa9190610cca565b60405180910390f35b61011d60048036038101906101189190610ce5565b610267565b60405161012e959493929190610da2565b60405180910390f35b610151600480360381019061014c9190610ce5565b610325565b60405161015e9190610f67565b60405180910390f35b610181600480360381019061017c9190610f89565b610500565b005b61018b610640565b6040516101989190610cca565b60405180910390f35b6101bb60048036038101906101b69190610fb6565b610646565b005b6101d760048036038101906101d2919061112b565b6108b2565b005b6101f360048036038101906101ee919061119a565b6109e8565b005b6101fd610b58565b60405161020a9190611205565b60405180910390f35b60036020528160005260406000206020528060005260406000206000915091509054906101000a900460ff1681565b6004602052816000526040600020602052806000526040600020600091509150505481565b60016020528060005260406000206000915090508060000154908060010180546102909061124f565b80601f01602080910402602001604051908101604052809291908181526020018280546102bc9061124f565b80156103095780601f106102de57610100808354040283529160200191610309565b820191906000526020600020905b8154815290600101906020018083116102ec57829003601f168201915b5050505050908060020154908060030154908060050154905085565b6060600060016000848152602001908152602001600020905080600301544211610384576040517f08c379a000000000000000000000000000000000000000000000000000000000815260040161037b906112cc565b60405180910390fd5b6000816005015467ffffffffffffffff8111156103a4576103a3611000565b5b6040519080825280602002602001820160405280156103dd57816020015b6103ca610b7c565b8152602001906001900390816103c25790505b5090506000600190505b826005015481116104f5578260040160008281526020019081526020016000206040518060600160405290816000820154815260200160018201805461042c9061124f565b80601f01602080910402602001604051908101604052809291908181526020018280546104589061124f565b80156104a55780601f1061047a576101008083540402835291602001916104a5565b820191906000526020600020905b81548152906001019060200180831161048857829003601f168201915b50505050508152602001600282015481525050826001836104c6919061131b565b815181106104d7576104d661134f565b5b602002602001018190525080806104ed9061137e565b9150506103e7565b508092505050919050565b60008054906101000a900473ffffffffffffffffffffffffffffffffffffffff1673ffffffffffffffffffffffffffffffffffffffff163373ffffffffffffffffffffffffffffffffffffffff161461058e576040517f08c379a000000000000000000000000000000000000000000000000000000000815260040161058590611412565b60405180910390fd5b600073ffffffffffffffffffffffffffffffffffffffff168173ffffffffffffffffffffffffffffffffffffffff16036105fd576040517f08c379a00000000000000000000000000000000000000000000000000000000081526004016105f49061147e565b60405180910390fd5b806000806101000a81548173ffffffffffffffffffffffffffffffffffffffff021916908373ffffffffffffffffffffffffffffffffffffffff16021790555050565b60025481565b8160016000828152602001908152602001600020600201544210158015610683575060016000828152602001908152602001600020600301544211155b6106c2576040517f08c379a00000000000000000000000000000000000000000000000000000000081526004016106b9906114ea565b60405180910390fd5b826003600082815260200190815260200160002060003373ffffffffffffffffffffffffffffffffffffffff1673ffffffffffffffffffffffffffffffffffffffff16815260200190815260200160002060009054906101000a900460ff1615610761576040517f08c379a000000000000000000000000000000000000000000000000000000000815260040161075890611556565b60405180910390fd5b600060016000868152602001908152602001600020905080600501548411156107bf576040517f08c379a00000000000000000000000000000000000000000000000000000000081526004016107b6906115c2565b60405180910390fd5b60016003600087815260200190815260200160002060003373ffffffffffffffffffffffffffffffffffffffff1673ffffffffffffffffffffffffffffffffffffffff16815260200190815260200160002060006101000a81548160ff021916908315150217905550836004600087815260200190815260200160002060003373ffffffffffffffffffffffffffffffffffffffff1673ffffffffffffffffffffffffffffffffffffffff1681526020019081526020016000208190555080600401600085815260200190815260200160002060020160008154809291906108a69061137e565b91905055505050505050565b60008054906101000a900473ffffffffffffffffffffffffffffffffffffffff1673ffffffffffffffffffffffffffffffffffffffff163373ffffffffffffffffffffffffffffffffffffffff1614610940576040517f08c379a000000000000000000000000000000000000000000000000000000000815260040161093790611412565b60405180910390fd5b818111610982576040517f08c379a000000000000000000000000000000000000000000000000000000000815260040161097990611654565b60405180910390fd5b600260008154809291906109959061137e565b9190505550600060016000600254815260200190815260200160002090506002548160000181905550838160010190816109cf9190611820565b5082816002018190555081816003018190555050505050565b60008054906101000a900473ffffffffffffffffffffffffffffffffffffffff1673ffffffffffffffffffffffffffffffffffffffff163373ffffffffffffffffffffffffffffffffffffffff1614610a76576040517f08c379a0000000000000000000000000000000000000000000000000000000008152600401610a6d90611412565b60405180910390fd5b600060016000848152602001908152602001600020905080600201544210610ad3576040517f08c379a0000000000000000000000000000000000000000000000000000000008152600401610aca90611964565b60405180910390fd5b806005016000815480929190610ae89061137e565b9190505550604051806060016040528082600501548152602001838152602001600081525081600401600083600501548152602001908152602001600020600082015181600001556020820151816001019081610b459190611820565b5060408201518160020155905050505050565b60008054906101000a900473ffffffffffffffffffffffffffffffffffffffff1681565b60405180606001604052806000815260200160608152602001600081525090565b6000604051905090565b600080fd5b600080fd5b6000819050919050565b610bc481610bb1565b8114610bcf57600080fd5b50565b600081359050610be181610bbb565b92915050565b600073ffffffffffffffffffffffffffffffffffffffff82169050919050565b6000610c1282610be7565b9050919050565b610c2281610c07565b8114610c2d57600080fd5b50565b600081359050610c3f81610c19565b92915050565b60008060408385031215610c5c57610c5b610ba7565b5b6000610c6a85828601610bd2565b9250506020610c7b85828601610c30565b9150509250929050565b60008115159050919050565b610c9a81610c85565b82525050565b6000602082019050610cb56000830184610c91565b92915050565b610cc481610bb1565b82525050565b6000602082019050610cdf6000830184610cbb565b92915050565b600060208284031215610cfb57610cfa610ba7565b5b6000610d0984828501610bd2565b91505092915050565b600081519050919050565b600082825260208201905092915050565b60005b83811015610d4c578082015181840152602081019050610d31565b60008484015250505050565b6000601f19601f8301169050919050565b6000610d7482610d12565b610d7e8185610d1d565b9350610d8e818560208601610d2e565b610d9781610d58565b840191505092915050565b600060a082019050610db76000830188610cbb565b8181036020830152610dc98187610d69565b9050610dd86040830186610cbb565b610de56060830185610cbb565b610df26080830184610cbb565b9695505050505050565b600081519050919050565b600082825260208201905092915050565b6000819050602082019050919050565b610e3181610bb1565b82525050565b600082825260208201905092915050565b6000610e5382610d12565b610e5d8185610e37565b9350610e6d818560208601610d2e565b610e7681610d58565b840191505092915050565b6000606083016000830151610e996000860182610e28565b5060208301518482036020860152610eb18282610e48565b9150506040830151610ec66040860182610e28565b508091505092915050565b6000610edd8383610e81565b905092915050565b6000602082019050919050565b6000610efd82610dfc565b610f078185610e07565b935083602082028501610f1985610e18565b8060005b85811015610f555784840389528151610f368582610ed1565b9450610f4183610ee5565b925060208a01995050600181019050610f1d565b50829750879550505050505092915050565b60006020820190508181036000830152610f818184610ef2565b905092915050565b600060208284031215610f9f57610f9e610ba7565b5b6000610fad84828501610c30565b91505092915050565b60008060408385031215610fcd57610fcc610ba7565b5b6000610fdb85828601610bd2565b9250506020610fec85828601610bd2565b9150509250929050565b600080fd5b600080fd5b7f4e487b7100000000000000000000000000000000000000000000000000000000600052604160045260246000fd5b61103882610d58565b810181811067ffffffffffffffff8211171561105757611056611000565b5b80604052505050565b600061106a610b9d565b9050611076828261102f565b919050565b600067ffffffffffffffff82111561109657611095611000565b5b61109f82610d58565b9050602081019050919050565b82818337600083830152505050565b60006110ce6110c98461107b565b611060565b9050828152602081018484840111156110ea576110e9610ffb565b5b6110f58482856110ac565b509392505050565b600082601f83011261111257611111610ff6565b5b81356111228482602086016110bb565b91505092915050565b60008060006060848603121561114457611143610ba7565b5b600084013567ffffffffffffffff81111561116257611161610bac565b5b61116e868287016110fd565b935050602061117f86828701610bd2565b925050604061119086828701610bd2565b9150509250925092565b600080604083850312156111b1576111b0610ba7565b5b60006111bf85828601610bd2565b925050602083013567ffffffffffffffff8111156111e0576111df610bac565b5b6111ec858286016110fd565b9150509250929050565b6111ff81610c07565b82525050565b600060208201905061121a60008301846111f6565b92915050565b7f4e487b7100000000000000000000000000000000000000000000000000000000600052602260045260246000fd5b6000600282049050600182168061126757607f821691505b60208210810361127a57611279611220565b5b50919050565b7f456c656374696f6e206973207374696c6c206f6e676f696e6700000000000000600082015250565b60006112b6601983610d1d565b91506112c182611280565b602082019050919050565b600060208201905081810360008301526112e5816112a9565b9050919050565b7f4e487b7100000000000000000000000000000000000000000000000000000000600052601160045260246000fd5b600061132682610bb1565b915061133183610bb1565b9250828203905081811115611349576113486112ec565b5b92915050565b7f4e487b7100000000000000000000000000000000000000000000000000000000600052603260045260246000fd5b600061138982610bb1565b91507fffffffffffffffffffffffffffffffffffffffffffffffffffffffffffffffff82036113bb576113ba6112ec565b5b600182019050919050565b7f4f6e6c792061646d696e2063616e20646f207468697321000000000000000000600082015250565b60006113fc601783610d1d565b9150611407826113c6565b602082019050919050565b6000602082019050818103600083015261142b816113ef565b9050919050565b7f496e76616c696420616464726573732100000000000000000000000000000000600082015250565b6000611468601083610d1d565b915061147382611432565b602082019050919050565b600060208201905081810360008301526114978161145b565b9050919050565b7f456c656374696f6e20697320636c6f7365640000000000000000000000000000600082015250565b60006114d4601283610d1d565b91506114df8261149e565b602082019050919050565b60006020820190508181036000830152611503816114c7565b9050919050565b7f596f75206861766520616c726561647920766f74656400000000000000000000600082015250565b6000611540601683610d1d565b915061154b8261150a565b602082019050919050565b6000602082019050818103600083015261156f81611533565b9050919050565b7f496e76616c696420706172747920494400000000000000000000000000000000600082015250565b60006115ac601083610d1d565b91506115b782611576565b602082019050919050565b600060208201905081810360008301526115db8161159f565b9050919050565b7f456e642074696d65206d7573742062652061667465722073746172742074696d60008201527f6500000000000000000000000000000000000000000000000000000000000000602082015250565b600061163e602183610d1d565b9150611649826115e2565b604082019050919050565b6000602082019050818103600083015261166d81611631565b9050919050565b60008190508160005260206000209050919050565b60006020601f8301049050919050565b600082821b905092915050565b6000600883026116d67fffffffffffffffffffffffffffffffffffffffffffffffffffffffffffffffff82611699565b6116e08683611699565b95508019841693508086168417925050509392505050565b6000819050919050565b600061171d61171861171384610bb1565b6116f8565b610bb1565b9050919050565b6000819050919050565b61173783611702565b61174b61174382611724565b8484546116a6565b825550505050565b600090565b611760611753565b61176b81848461172e565b505050565b5b8181101561178f57611784600082611758565b600181019050611771565b5050565b601f8211156117d4576117a581611674565b6117ae84611689565b810160208510156117bd578190505b6117d16117c985611689565b830182611770565b50505b505050565b600082821c905092915050565b60006117f7600019846008026117d9565b1980831691505092915050565b600061181083836117e6565b9150826002028217905092915050565b61182982610d12565b67ffffffffffffffff81111561184257611841611000565b5b61184c825461124f565b611857828285611793565b600060209050601f83116001811461188a5760008415611878578287015190505b6118828582611804565b8655506118ea565b601f19841661189886611674565b60005b828110156118c05784890151825560018201915060208501945060208101905061189b565b868310156118dd57848901516118d9601f8916826117e6565b8355505b6001600288020188555050505b505050505050565b7f43616e6e6f7420616464207061727469657320746f206120737461727465642060008201527f656c656374696f6e000000000000000000000000000000000000000000000000602082015250565b600061194e602883610d1d565b9150611959826118f2565b604082019050919050565b6000602082019050818103600083015261197d81611941565b905091905056fea26469706673582212201f8a5c5f1ed4b1035dc9e94b0b1565bae7423386b73f2cb308448c45c16db52b64736f6c63430008120033",
  "linkReferences": {},
  "deployedLinkReferences": {}
}